:020000020000FC
:2000000000B400408C140840683A080000000000000000000000000000000000000000005A
:20001000ED04DEFF0015DFC00215D8400315D8800415D8C00515D9000615D9400715D98062
:200020000815D9C0307A000B0915DA000A15DA400B15DA800C15DAC00D15DB000E15DB40B4
:200030000F15DB801015DBC01115D940FF04EBFF1215DBC0313A0009004C288003261000E2
:20004000022620000FC00020070600001215DF40FF17E8BFFF04E93F1D000020021E1000C1
:20005000FF04EBFF1215DBC01117D9401217DF400017DFC0707A28010217D8400317D880EC
:200060000417D8C00517D9000617D9400717D9800817D9C00917DA000A17DA400B17DA80C2
:200070000C17DAC00D17DB000E17DB400F17DB801017DBC01304DEC0083AEF80F904DEFFF1
:200080000615DFC00515DF000504DF00883A0001313A0005FE15E0BFFE17E0BFFB15E0BF7D
:20009000FD15E03F00440080FC15E0BFFB17E0FFFC17E0BF703A18841426100000B4008044
:2000A000F7041086FD17E0FF90FA1806883A10C5001710C000B40080F7041086FD17E13F9D
:2000B00090FA2008883A11050104108000171080883A1009E83A183E883A0001313A0005E4
:2000C000FF15E0BFFF17E0BF07060000FC17E0BF883A1085FC15E0BFFD17E0BF004410806B
:2000D000FD15E0BFE106003FFB15E0BFFB17E0BFDB1E103F883A0001883A0001883AE03732
:2000E0000117DFC00017DF000204DEC0283AF800FB04DEFF0415DFC00315DF000304DF00E4
:2000F000FF15E13FFFC400BFFD15E0BFFE15E03F8A17D0A1072610008A17D0A1FD17E0FF03
:20010000FE17E1BFFF17E17F883A1809E83A103E02060000A03A003D883A0005883AE037A2
:200110000117DFC00017DF000204DEC0283AF80000F406C00014DEE400B406806B14D6A560
:2001200000B40080F014108600B400C0371418C7032610C00015100001041080FD3610FF5E
:200130007D00002085400020FF06003FFF04DEFF0015DF00883AD8393FC400C001340080CA
:2001400014041084003510C03E4400C00134008010041084003510C02AC400C001340080E7
:2001500018041084003510C021C400C0013400801C041084003510C03FC400C0013400804F
:2001600020041084003510C03FC400C00134008024041084003510C0883A0001883AE037ED
:200170000017DF000104DEC0283AF800FF04DEFF0015DF00883AD839224400C001340080FA
:2001800014041084003510C0218400C00134008010041084003510C031C400C0013400807D
:2001900018041084003510C031C400C0013400801C041084003510C0100400C001340080EE
:2001A00020041084003510C01FC400C00134008024041084003510C0883A0001883AE037CD
:2001B0000017DF000104DEC0283AF800FC04DEFF0315DFC00215DF000204DF00FF15E13F99
:2001C000FF17E0BFFE15E0BF013400802B041084003710C0FE17E0BF001510C0883A0007D7
:2001D000013400802B041084003510C026C00020883A0001883AE0370117DFC00017DF0043
:2001E0000204DEC0283AF800FC04DEFF0315DFC00215DF000204DF008504D0A1FF15E0BFE5
:2001F00003C400C0013400802A041084003510C0883A0007013400802B041084003510C0A6
:200200000015D800FF17E1FF00B40180DB043180883A000B883A00094C800020883A0001EF
:20021000883AE0370117DFC00017DF000204DEC0283AF800FB04DEFF0415DFC00315DF00BF
:200220000304DF00FD15E03FFE15E03F3C800020FD17E0BF04081080181E1000013400804F
:200230002C041084FE17E0FF003510C0FD17E0FF0134008000041084883A1885002B108097
:20024000FFCC10BFFE15E0BFFD17E0BF00841080FD15E0BFFF15E03F03060000FF17E0BFE9
:2002500000441080FF15E0BFFF17E0FF00B40080A80410A1F90E10FF01060000FD15E03F33
:200260002EC00020E206003FF904DEFF0615DFC00515DF000504DF00FC15E13FFD15E17F31
:20027000FE15E1BFFF15E1FF0217E0800015D880FF17E1FFFE17E1BFFD17E17FFC17E13F8F
:2002800067800020883AE0370117DFC00017DF000204DEC0283AF800F904DEFF0615DF00FF
:200290000604DF00FE15E13FFF15E17FFF17E0BFFA15E0BF303A0005FB15E0BFFB17E0FF4C
:2002A000FF8400BF703A1884703A1001FB17E0BFFC15E0BF004400C0FA17E0BF983A188478
:2002B000883A10078617D0A1B03A18848615D0A18617D0A170FA1001FC17E0BFFD15E0BFC9
:2002C000FD17E0BF703A1001883A0005883A0001883AE0370017DF000104DEC0283AF8005A
:2002D000F904DEFF0615DF000604DF00FE15E13FFF15E17FFF17E0BFFA15E0BF303A0005D8
:2002E000FB15E0BFFB17E0FFFF8400BF703A1884703A1001FB17E0BFFC15E0BF004400C0B6
:2002F000FA17E0BF983A1884303A0084883A10078617D0A1703A18848615D0A18617D0A19B
:2003000070FA1001FC17E0BFFD15E0BFFD17E0BF703A1001883A0005883A0001883AE0372E
:200310000017DF000104DEC0283AF800FC04DEFF0315DF000304DF00FE15E13FFF15E17F79
:2003200030FA0005FD15E0BF004400C0FF17E0BF983A1884883A1007FD17E0BF703A1884E4
:20033000C03A10043FCC1080883AE0370017DF000104DEC0283AF800F504DEFF0A15DFC0A4
:200340000915DF000904DF00FC15E13FFD15E17FFE15E1BFFF15E1FFFA8400BFF715E0BF82
:20035000FD17E0BFF815E0BFF817E0BF08081080271E1000303A0005FB15E0BFFB17E0FF7C
:20036000FF8400BF703A1884703A1001FB17E0BFFA15E0BF00B40080F7041086F817E0FF28
:2003700090FA1806883A10C5FE17E0FF001510C000B40080F7041086F817E0FF90FA1806FA
:20038000883A10C501041080FF17E0FF001510C0FE17E0BF05261000F817E0BF883A100BDD
:20039000FC17E13F5180002004060000F817E0BF883A100BFC17E13F5A000020F715E0BF3C
:2003A000FA17E0BFF915E0BFF917E0BF703A1001F717E0BF883AE0370117DFC00017DF0043
:2003B0000204DEC0283AF800FC04DEFF0315DF000304DF00FD15E13FFE15E17FFF15E1BF1C
:2003C000FE17E0FFFD17E0BF0C26188008060000FE17E0BF010410C0FE15E0FFFD17E0FF30
:2003D00001041900FD15E13F001718C0001510C0FE17E0FFFF17E0BFF51E18BF883A000193
:2003E000883AE0370017DF000104DEC0283AF800FE04DEFF0115DFC00015DF00883AD839D6
:2003F00000B401807404318500B40140F804294300B40100740421057680002000B401808F
:200400008C04318000B401400804294000B40100080421007680002000B40180F804318354
:2004100000B40140F404294300B40100F404210376800020A2000020B2C00020883A000175
:20042000883AE0370117DFC00017DF000204DEC0283AF800FD04DEFF0215DFC00115DF00AF
:200430000104DF00883A00098B400020883A00018EC00020A6C0002000B40100B3042102CC
:20044000C90000208717D0A18817D0E18917D121883A200D883A180B883A10094340002070
:20045000FF15E0BF0044010094800020FF17E13FCA400020FD04DEFF0215DFC00115DF0077
:200460000104DF00FF15E13FC6C0002000440080703A1001883A0001883AE0370117DFC0EC
:200470000017DF000204DEC0283AF800FF04DEFF0015DF00883AD839883A0001883AE03735
:200480000017DF000104DEC0283AF800FE04DEFF0115DFC00015DF00883AD8390617D0A081
:20049000032610000617D0A0E83A103E010600008B04D0A1883AE0370117DFC00017DF0089
:2004A0000204DEC0283AF800FB04DEFF0415DFC00315DF000304DF00FF15E13FFF17E0BFE4
:2004B0000816100003040140FF17E13FF7400020883A100700B4008002041084883A188523
:2004C00001060000883A0005FD15E0BFFD17E0BF19261000FD17E0BF001710800417108096
:2004D00006261000FD17E0BF0017108004171080FD17E13FE83A103E01060000883A000559
:2004E000FE15E0BFFF17E13FBE800020FE17E0BF070E100090C00020883A1007FE17E0BFE0
:2004F000C83A008500151880FFC400BF07060000883A00050506000090C00020883A10070E
:200500001444008000151880FFC400BF883AE0370117DFC00017DF000204DEC0283AF80050
:20051000FF04DEFF0015DF00883AD839883A0001883AE0370017DF000104DEC0283AF80095
:20052000FC04DEFF0315DF000304DF00FD15E13FFE15E17FFF15E1BFFF17E0BF883AE0371A
:200530000017DF000104DEC0283AF800FD04DEFF0215DFC00115DF000104DF0000B4008017
:20054000F3041083FF15E0BF06060000FF17E0BF00171080E83A103EFF17E0BFFF0410BFFF
:20055000FF15E0BFFF17E0FF00B40080F4041083F62E18BF883A0001883AE0370117DFC0D6
:200560000017DF000204DEC0283AF800FD04DEFF0215DFC00115DF000104DF0000B40080E6
:20057000F3041083FF15E0BF06060000FF17E0BF00171080E83A103EFF17E0BFFF0410BFCF
:20058000FF15E0BFFF17E0FF00B40080F4041083F62E18BF883A0001883AE0370117DFC0A6
:200590000017DF000204DEC0283AF800FF04DEFF0015DF00883AD839883A0001883AE03714
:2005A0000017DF000104DEC0283AF800FE04DEFF0115DF000104DF00FF15E13FFF17E0BFA7
:2005B000FE8410BF042810C01A1E180090BA100600B40080E1041082883A1885001710807D
:2005C000683A10000BC400020BC400020BD400020BD400020BD400020BC400020BCC00027A
:2005D0000BD400020BC400020BC400020BD400020BC400020BCC00020BD400020BD400023B
:2005E0000BC400020044008003060000883A000501060000883A0005883AE0370017DF00F9
:2005F0000104DEC0283AF800FC04DEFF0315DFC00215DF000115DC000204DF00FE15E13F5A
:20060000FE17E0BF00D01080111E100000B4040002048404FE17E0BF03040140883A10096A
:20061000F7400020883A8085020410800015100000B4040002048404FE17E0BF03040140AF
:20062000883A1009F7400020883A808500151000883A0001FF04E6FF0217DFC00117DF0042
:200630000017DC000304DEC0283AF800FF04DEFF0015DF00883AD83970FA0001883A0001E3
:20064000883AE0370017DF000104DEC0283AF800883A200B883A000F883A000D883A000976
:20065000CDC10020FE04DEFF883A000B0015DC000115DFC0883A2021DF40002000B4008014
:2006600072041085001711000F17208001261000E83A103E883A8009F9C00020FA04DEFFDB
:200670000315DC0000B4040072048405001780C00415DC400515DFC052171880883A202374
:2006800037261000011710C007C401000E1620C000441A00221E8800008418C0883A18C712
:20069000883A18C701151200883A10C700151940883A00050517DFC00417DC400317DC00CB
:2006A0000604DEC0283AF800003400800004108026261000640401000015D9400115D9808E
:2006B0000215D9C0000000000017D9400117D9800217D9C01D261000001781000115100016
:2006C0000044020052172240883A000700151240521520806215100063151000DE26883FF8
:2006D000883A18C9883A2109883A1109221521800044018062171240983A30CCB03A4992A4
:2006E00062151240421521C000840100D21E893F63171100B03A218C63151180CE06003F7E
:2006F0005304188052151880C606003FFFC400BFD006003FF504DEFF0915DF000615DD404F
:200700000315DC800A15DFC00815DDC00715DD800515DD000415DCC00215DC400115DC00A3
:200710000015D900883A283900440480FFC4057F00B4008072041085001712005217450093
:20072000520444C01C26A0000117A080FFC415FF0D16B80000441400883A8421883A84216D
:2007300020048440883AA463883AA4211E26E000401780801C26E080FFC4BDFFFF04843F0F
:20074000FF048C7FF91EBD7F0034008000041080092610000117A080301E10000017A080E4
:2007500032261000883AA009001598800000000000179D00E41EA03F0A17DFC00917DF0035
:200760000817DDC00717DD800617DD400517DD000417DCC00317DC800217DC400117DC00B9
:200770000B04DEC0283AF8000117A080001780C0FFC410BF142615C000158000DE26183F42
:20078000983A95C86217A0800117A580703A20840B2610006317A080703A20880C1E20008F
:20079000001789400017D900E83A183E0117A080BF1E15BF00179880CF26153FBC06003F9F
:2007A000E83A183EF906003F0115A5C0EB06003F00178900E83A183EF406003F0017A08050
:2007B000883AA027883A1029B606003F883A0005FB06003F883A000507262000004C20C063
:2007C000D07A200801261800883A1145883A294BFA1E203F283AF800283AF800FD04DEFF11
:2007D0000215DF000204DF00FF15E13F883A0001FF17E0BFFE15E0BFFE17E0BF02261000E4
:2007E000F070002A01060000F0B0002AFF06003F642F76656E2F6C75006C000000430000BF
:2007F0000000000000000000000000000000000000000000000000000000000000000000E9
:200800000000000000000000000000000000000000000000000000000000000000000000D8
:200810000000000000000000000000000000000000000000000000000000000000000000C8
:200820000000000000000000000000000000000000000000000000000000000000000000B8
:200AE0000000000000000000000000000000000015B8000215B800020FD000020000000077
:200AF00000000000000000000A4000020000000000000000000000000FE0000200000000A9
:200B0000000000000FE0000200000000000000000FE00002000000000000000000000000F3
:200B10000000000000000000000000000000000000000000000000000000000000000000C5
:200B20000000000000000000000000000000000000000000000000000000000000000000B5
:200B30000000000000000000000000000000000000000000000000000000000000000000A5
:200B4000000000000000000000000000000000000000000000000000000000000000000095
:200B5000000000000000000000000000000000000000000000000000000000000000000085
:200B6000000000000000000000000000000000000000000000000000000000000000000075
:200B7000000000000000000000000000000000000000000000000000000000000000000065
:200B8000000000000000000000000000000000000000000000000000000000000000000055
:200B9000000000000000000000000000000000000000000000000000000000000000000045
:200BA000000000000000000000000000000000000000000000000000000000000000000035
:200BB00000000000000000000000000000000000000000000000000000000000147400029B
:200BC00014DC000215440002000000000000000000000000000000000000000000000000C8
:200BD0000000000000000000000000000FDC00020000000000000000000000000000000018
:200BE0000000000000000000000000000000000000000000000000000000000000000000F5
:200BF0000000000000000000000000000000000000000000000000000000000000000000E5
:200C00000000000000000000000000000000000000000000000000000000000000010000D3
:200C100000000000330EABCD1234E66DDEEC0005000B000000000000000000000000000098
:200C20000000000000000000000000000000000000000000000000000000000000000000B4
:200C30000000000000000000000000000000000000000000000000000000000000000000A4
:200C4000000000000000000000000000000000000000000000000000000000000000000094
:200C5000000000000000000000000000000000000000000000000000000000000000000084
:200C6000000000000000000000000000000000000000000000000000000000000000000074
:200C7000000000000000000000000000000000000000000000000000000000000000000064
:200C8000000000000000000000000000000000000000000000000000000000000000000054
:200C9000000000000000000000000000000000000000000000000000000000000000000044
:200CA000000000000000000000000000000000000000000000000000000000000000000034
:200CB000000000000000000000000000000000000000000000000000000000000000000024
:200CC000000000000000000000000000000000000000000000000000000000000000000014
:200CD000000000000000000000000000000000000000000000000000000000000000000004
:200CE0000000000000000000000000000000000000000000000000000000000000000000F4
:200CF0000000000000000000000000000000000000000000000000000000000000000000E4
:200D00000000000000000000000000000000000000000000000000000000000000000000D3
:200D10000000000000000000000000000000000000000000000000000000000000000000C3
:200D20000000000000000000000000000000000000000000000000000000000000000000B3
:200D30000000000000000000000000000000000000000000000000000000000000000000A3
:200D4000000000000000000000000000000000000000000000000000000000000000000093
:200D5000000000000000000000000000000000000000000000000000000000000000000083
:200D6000000000000000000000000000000000000000000000000000000000000000000073
:200D7000000000000000000000000000000000000000000000000000000000000000000063
:200D8000000000000000000000000000000000000000000000000000000000000000000053
:200D9000000000000000000000000000000000000000000000000000000000000000000043
:200DA000000000000000000000000000000000000000000000000000000000000000000033
:200DB000000000000000000000000000000000000000000000000000000000000000000023
:200DC00000000000000000000000000000000000000000000000000000000000FFFFFFFF17
:200DD00015B0000215B000020FE000020FE00002FFFFFFFF00000000118800021188000261
:200DE0000000000000000000000000000000000000000000000000000000000000000000F3
:200DF0000000000000000000000000000000000000000000000000000000000000000000E3
:200E00000000000000000000000000000000000000000000000000000000000000000000D2
:200E10000000000000000000000000000000000000000000000000000000000000000000C2
:00000001FF
